:020000040800F2
:1000000068040020DD010008D30D0008DD0C0008A5
:10001000D10D0008E90200082114000800000000CA
:100020000000000000000000000000004313000872
:10003000EB02000800000000F50D00084513000861
:10004000F7010008F7010008F7010008F7010008B0
:10005000F7010008F7010008F7010008F7010008A0
:10006000F7010008F7010008F7010008F701000890
:10007000F7010008F7010008F7010008F701000880
:10008000F7010008F7010008F70100080000000070
:10009000000000000000000000000000F701000860
:1000A000F7010008F7010008F7010008F701000850
:1000B000000000000000000000000000F701000840
:1000C000F7010008F7010008F7010008F701000830
:1000D000F7010008F7010008F70100080000000020
:1000E000F7010008F7010008000000000000000010
:1000F000000000000000000000000000F701000800
:100100000000000000000000F701000800000000EF
:100110000000000000000000F701000800000000DF
:10012000F7010008F7010008F7010008F7010008CF
:10013000F7010008000000000000000000000000BF
:1001400000000000000000000000000000000000AF
:10015000F7010008F7010008F7010008F70100089F
:10016000000000000000000000000000000000008F
:10017000000000000000000000000000000000007F
:10018000F7010008F701000800000000000000006F
:1001900000000000F701000800000000000000005F
:1001A000000000000000000000000000000000004F
:1001B000000000000000000000000000F70100083F
:1001C000F7010008F7010008DFF80CD000F07AF81A
:1001D000004800474D140008680400200648804786
:1001E00006480047FEE7FEE7FEE7FEE7FEE7FEE71C
:1001F000FEE7FEE7FEE7FEE7CD130008C9010008B1
:100200002DE9F05F0546002092469B46884606464B
:10021000814640241BE0284641464746224600F0DE
:1002200041F853465A46C01A914110D31146184618
:10023000224600F028F82D1A67EB01084F462246A7
:100240000120002100F01FF817EB00094E41201E8D
:10025000A4F10104DFDC484631462A464346BDE8A6
:10026000F09FD2B201E000F8012B491EFBD270478B
:100270000022F6E710B513460A4604461946FFF772
:10028000F0FF204610BD202A04DB203A00FA02F1DC
:10029000002070479140C2F1200320FA03F3194374
:1002A00090407047202A04DB203A21FA02F0002116
:1002B000704721FA02F3D040C2F120029140084376
:1002C00019467047064C074D06E0E06840F0010310
:1002D00094E8070098471034AC42F6D3FFF778FF54
:1002E000F821000818220008FEE7704770B50446A0
:1002F00000F0CAF80546601C02D0044800780444A7
:1003000000F0C2F8401BA042FAD370BD00000020EC
:100310002DE9F84FDFF84CB100224FF001084FF003
:10032000030A4FF00F090BF1040E00BF0B6808FA27
:1003300002F42340A3427DD14D68022D01D0122D3D
:100340000ED1D50800EB850CDCF820505607F70ECF
:1003500009FA07F6B5430E69BE402E43CCF820607B
:10036000066855000F790AFA05FC07F0030726EA2C
:100370000C06AF40374307604E68012E05D0022EB1
:1003800003D0112E01D0122E0ED18768CE6827EA35
:100390000C07AE403E4386604668A6430C79C4F322
:1003A0000014944034434460C4688E6824EA0C040A
:1003B000AE402643C6604C68E4004DD52A4C256803
:1003C00045F480452560246822F0030504F4804448
:1003D0000094264C2E19D6F8084895072F0F09FAD5
:1003E00007F5AC43224DA84201D100250AE0214D7A
:1003F000A84201D1012505E01F4DA84201D10225E7
:1004000000E00725BD402543C6F80858DBF800404A
:100410005D464E689C43F60300D51C432C60DEF815
:10042000004075464E689C43B60300D51C432C60C3
:100430000C4D00E010E008352C684E689C43F60235
:1004400000D51C432C60074D0C352C684E689C432E
:10045000B60200D51C432C60521C102AFFF466AF74
:10046000BDE8F88F003C01404438024000300140B4
:100470000000024000040240000802400AB181610D
:1004800070470904FBE700000148806870470000DE
:1004900000000020024881680278114481607047A2
:1004A000000000200B4810B5016841F400710160A4
:1004B000016841F480610160016841F4807101606C
:1004C000032000F061F8002000F006F800F024F8A6
:1004D000002010BD003C024070B50D4D04464FF4A5
:1004E0007A712878B1FBF0F00A490968B1FBF0F0A5
:1004F00000F0E0FB48B9102C07D200222146501E24
:1005000000F022F800206C6070BD012070BD00007A
:10051000000000200C0000200A4808B5016841F4E2
:1005200080410160006800F4804000900548001F91
:10053000016841F080510160006800F08050009037
:1005400008BD000044380240F0B40E4B1B680C4656
:10055000C3F30223C3F10705042D00D90425191D97
:10056000072901D2002300E0DB1E012606FA05F16F
:10057000491E214099409E40761E16403143F0BCF2
:1005800000F028BC0CED00E0064900F00702086806
:100590004FF6FF03184040EA0220034A1043086068
:1005A000704700000CED00E00000FA052DE9F0476F
:1005B0000E46050065D0DFF81481D8F80000F7B2C8
:1005C00000F00F00B04207D288F80070D8F80000A1
:1005D00000F00F00B04254D128683D4C810712D57D
:1005E000400703D5206840F4E050206028780007D9
:1005F00003D5206840F4604020602068A96820F09E
:10060000F000084320602878C0072DD03049686882
:100610000839012812D0022813D0032811D0096804
:10062000890700292DDA216821F0030101432160A7
:10063000FFF72AFF814641F2883A0EE009688903F4
:10064000EFE709688901ECE7FFF71EFFA0EB09015E
:10065000514502D90320BDE8F0872068696800F0A1
:100660000C00B0EB810FEFD1D8F80010404601F03C
:100670000F01B14207D90770006800F00F00B042C7
:1006800001D00120E7E72878400705D52068E96810
:1006900020F4E050084320602878000706D5206841
:1006A000296920F4604040EAC100206000F016F89B
:1006B0002168084AC1F30311515CC840064908602B
:1006C0000020FFF709FF0020C5E70000003C0240C2
:1006D00008380240E82100080C000020154810B539
:1006E000006810F00C02144813D01449042A0FD0EB
:1006F000082A0ED10F4C241F2268236802F03F0203
:100700005B0207D52068C0F38810A0FB010106E05A
:10071000084610BD2168C1F38811A1FB0001002328
:10072000FFF76EFD2168C1F30141491C4900B0FB90
:10073000F1F010BD083802400024F40040787D013B
:100740002DE9F84F05460078DFF800B3C04CC0072C
:100750004AD0DBF800105846C1F38101012908D0C6
:100760000068C0F3810002280AD1201D0068400201
:1007700006D52068800337D56868002872D033E03A
:100780006868B0F5803F10D0B0F5A02F206810D079
:1007900020F480302060206820F480202060686889
:1007A000A8B1FFF771FE06460DE0206840F48030E6
:1007B000F4E740F480202060F7E700BFFFF764FE15
:1007C000801B64286FD820688003F7D50CE0FFF702
:1007D0005BFE064605E000BFFFF756FE801B64285F
:1007E000F0D820688003F7D42878DFF86882800783
:1007F0004FF0000940D5DBF80010584611F00C0FFF
:1008000009D00068C0F3810002280BD18F48001F77
:100810000068400206D42068800715D5E8680128E2
:1008200020D111E0E868B8B10120C8F80000FFF756
:100830002BFE064605E000BFFFF726FE801B0228C0
:10084000C0D820688007F7D52068296920F0F80013
:1008500040EAC10020600FE0C8F80090FFF714FEE6
:10086000064606E0EFE000BFFFF70EFE801B022801
:1008700019D820688007F7D42878000722D5734E4E
:10088000754869696C3679B101210160FFF7FCFD9B
:10089000074604E0FFF7F8FDC01B022803D83068C4
:1008A0008007F7D50EE089E0C0F80090FFF7ECFD77
:1008B000074604E0FFF7E8FDC01B02287ED8306839
:1008C0008007F7D42878400768D5DFF880A1002793
:1008D0000AF1380ADAF80000C0000BD4DAF8001088
:1008E00041F08051CAF80010DAF80000012700F04A
:1008F00080500090594E3068C00510D4306840F4E4
:1009000080703060FFF7C0FD009005E0FFF7BCFD90
:100910000099401A022851D83068C005F6D54B4ED0
:10092000A868683601280FD00528306810D020F05C
:1009300001003060306820F004003060A868B8B171
:10094000FFF7A2FD00900FE0306840F00100F4E7EF
:1009500040F004003060F7E7FFF796FD0099411A78
:1009600041F28830814266D830688007F4D50EE0C5
:10097000FFF78AFD009007E0FFF786FD0099411A16
:1009800041F28830814256D830688007F4D42FB1C4
:10099000DAF8001021F08051CAF80010A869D0B32D
:1009A000DBF80010C1F3810102294CD0022848462F
:1009B00007D0C8F86000FFF767FD00E03BE00546A0
:1009C0003CE04746C8F86000FFF75EFD064604E0DD
:1009D000FFF75AFD801B02282DD820688001F7D42C
:1009E000F5E907010843E9681D4A490802EB01419E
:1009F000AA6841EA82110843297C40EA0160297D06
:100A000040EA01711148001F016001203866FFF7BC
:100A10003BFD054605E014E0FFF736FD401B0228CC
:100A200009D820688001F7D50BE000BFFFF72CFD47
:100A3000401B022802D90320BDE8F88F20688001FE
:100A4000F4D40020F8E70120F6E70000083802405F
:100A50000038024000004742800E474200700040CC
:100A60000000FFFF70B5040005D00025A56294F8D2
:100A7000510010B106E0012070BD84F850502046AE
:100A800000F030F8022084F851002068016821F05D
:100A900040010160D4E901010843D4E90312114384
:100AA000084361690843218B01F400710843E1693F
:100AB0000843216A0843A16A084321680860A069C5
:100AC000042101EA1040616A0843216848602068F7
:100AD000C16921F40061C1616565012084F851009C
:100AE000002070BD10B586B0044614216846FFF79B
:100AF000BFFB13492068884220D1124800210268B8
:100B000042F480520260006800F4805005900D4865
:100B10001438026842F001020260006800F001002F
:100B20000590A02000900220CDE901010320039050
:100B30000520049069460448FFF7EAFB06B010BDA3
:100B40000030014044380240000002402DE9F84FD7
:100B5000044690F850000026994617460D46012895
:100B60000DD04FF0010B84F850B0FFF78DFC80469C
:100B700094F85100B246012804D0022694E00220E5
:100B8000BDE8F88F002D7BD0002F79D0032084F8AA
:100B90005100C4F854A02563A786E786C4F838A09E
:100BA000A4F83CA0A4F83EA0C4F844A0C4F840A017
:100BB000A068B0F5004F04D12068016841F480417D
:100BC000016020680168490603D4016841F04001D2
:100BD0000160E068B0F5006F606804D030B3E08E6B
:100BE000012823D03EE010B1E08E01281AD135F85B
:100BF000021B206805E020688168890706D535F862
:100C0000021BC160E08E401EE0860BE0B9F1000FD0
:100C100034D0B9F1FF3F05D0FFF736FCA0EB080157
:100C200049452BD2E08E0028E5D11EE0216815F859
:100C3000010B087306E020688168890706D515F85E
:100C4000011B0173E08E401EE0860BE0B9F1000F3E
:100C500014D0B9F1FF3F05D0FFF716FCA0EB080157
:100C600049450BD2E08E0028E5D14B4601220221F6
:100C70002046CDF8008000F019FB10B1032613E0E8
:100C800011E042464946204600F000FB18B101261B
:100C90002020606508E0A06818B92068C1688068F5
:100CA0000090606D00B1012684F851B084F850A026
:100CB000304665E710B5401EB0F1807F01D30120BA
:100CC00010BD4FF0E02460610F21601700F082F842
:100CD0000020A06107202061002010BDFEE7000079
:100CE0002DE9F04186B014216846FFF7C1FA264885
:100CF0000024016841F001010160016801F0010177
:100D00000591016841F004010160016801F00401EE
:100D10000591016841F00201016000681B4E00F07E
:100D200002004FF410750590002229463046FFF767
:100D3000A5FB174F002280213846FFF79FFBDFF805
:100D40005480002240214046FFF798FB0095012582
:100D5000CDE90154694630460394FFF7D9FA802063
:100D60000090CDE90154694638460394FFF7D0FA64
:100D700040200090CDE90154694640460394FFF7B6
:100D8000C7FA06B0BDE8F0813038024000000240EA
:100D900000080240000402400C480B494FF4007266
:100DA00001604FF4827141604FF400418160002185
:100DB000C1600161C0E90512C161016241628162E5
:100DC0000F21C162FFF74EBE00300140100000202D
:100DD000FEE770470907090E002806DA00F00F0049
:100DE00000F1E02080F8141D704700F1E02080F849
:100DF0000014704770472DE9F04107461C46154620
:100E00000E462A2000F010FA002000F01BFA7F1C8A
:100E1000F8B200F017FA002000F014FA6D1CE8B2E6
:100E200000F010FA2B2000F0FFF9002000F00AFA81
:100E3000B61CF0B200F006FA002000F003FAA41C81
:100E4000E0B2BDE8F04100F0FDB900002DE9FF4F30
:100E500081B014460D460646002280212F48DDF859
:100E600038A0FFF70BFB05F10800C3B206F10C0038
:100E7000C2B229463046FFF7BEFF2C2000F0D4F95D
:100E8000203CC4EBC4004FF00008009000980224FE
:100E900008EB400BC4EBC4012148594408446100ED
:100EA00010F8070C891E8840C7B2022C06D0072014
:100EB00081460026380603D5049D02E00620F7E7A8
:100EC00055467806070E280A00F0BCF9E8B200F093
:100ED000B9F9761CF6B24E45ECD3641E14F0FF044B
:100EE000D8D108F1010000F0FF08B8F1070FCDD309
:100EF0004FEA1A25284600F0A5F90AF0FF0000F095
:100F0000A1F9641CE4B20D2CF4D305B00122BDE8B4
:100F1000F04F80210148FFF7B1BA000000080240FD
:100F2000981500082DE9F84F80465442002602200B
:100F30009B460F4600EB44050A9848B3BB19A8EB43
:100F40000400B91B9A4602468946CDF800B000F06D
:100F5000D5F808EB0400534602464946CDF800B0E8
:100F600000F0CCF82846B54208DC761C00EB4605BC
:100F70006D1CF44202D1A04200DC0020A04203DD3F
:100F8000641C05EB44056D1C002CD5DDBDE8F88F15
:100F9000A8EB040007EB0609009009F0FF01C0B2BE
:100FA0005A4600F0F1F808EB040A09F0FF010AF0D4
:100FB000FF005A4600F0E8F8A7EB060909F0FF0128
:100FC0000AF0FF005A4600F0DFF8009809F0FF0130
:100FD000C0B25A4600F0D8F8C4E700002DE9F05F2F
:100FE000DFF85CB016460C46814698460022802108
:100FF00058460A9FFFF742FA434632462146484682
:10100000FFF7F9FE2C2000F00FF94FEA172A0DE048
:101010004D4607E0504600F015F9F8B200F012F91D
:101020006D1CEDB2B542F5D9641CE4B24445EFD96C
:101030005846BDE8F05F01228021FFF71FBA00008B
:101040000008024070B5264824494FF40072016040
:101050004FF4827141604FF4004181600021C16012
:101060000161C0E90512C1610162416281620A2128
:10107000C162FFF7F7FC1B4C002280212046FFF7DE
:10108000FDF9194D002240212846FFF7F7F90A2003
:10109000FFF72CF9012240212846FFF7EFF90A203B
:1010A000FFF724F9112000F0BFF80A20FFF71EF91E
:1010B0003A2000F0B9F8052000F0C4F8362000F01E
:1010C000B3F8682000F0BEF8292000F0ADF8204603
:1010D000BDE8704001228021FFF7D0B90030014007
:1010E00010000020000802400004024001225102CA
:1010F0000148FFF7C3B90000000002402DE9F05F8E
:10110000144602464FF00008581A00F099F90546B7
:10111000A01A00F095F9854207D9D0B20A460146D7
:10112000E0B21C464FF001080346A24203DDD1B2F3
:1011300022461C460B46A4EB0209581A00F080F91F
:10114000824609EBD9704510994201DA012001E08D
:101150004FF0FF3083460E46174611E0B8F1000FFE
:1011600002D0F9B2304601E0F1B23846C0B20A9A74
:1011700000F00AF8B5EB0A0501D55E444D447F1C2A
:10118000A742EBDDBDE8F09F2DE9F0410F4F14467B
:101190000D460646002280213846FFF76FF92B46A0
:1011A000324619461046FFF726FE2C2000F03CF888
:1011B000200A00F047F8E0B200F044F83846BDE8F5
:1011C000F04101228021FFF759B9000000080240D8
:1011D0002DE9F8431E46089C1746884605460B46EF
:1011E0000094FFF7FBFE33463A4619462846009422
:1011F000FFF7F4FE2A463346414610460094FFF7B7
:10120000EDFE3A463346414610460094FFF7E6FEAF
:10121000BDE8F88301B50A23012269460148FFF7BA
:1012200095FC08BD1000002010B5044600224021A6
:101230000348FFF723F92046BDE81040FFF7EABF57
:101240000000024010B50446012240210348FFF788
:1012500015F92046BDE81040FFF7DCBF0000024052
:101260002DE9F8431F4614460D468046089E08E0C7
:101270003B46294640460096FFF7E8FD0835EDB2AB
:10128000641C2278002AF3D1BDE8F88338B50B46F8
:10129000009204460022802100F008F8002804D0C3
:1012A000606D40F020006065032038BD2DE9F041FD
:1012B0001D4617460E460446DDF8188035E0681CCA
:1012C00033D02DB1FFF7E0F8A0EB0800A8422CD3F3
:1012D0002068416821F0E00141606068B0F5827FDC
:1012E0000BD1A068B0F5004F02D0B0F5806F04D1EB
:1012F0002068016821F040010160A06AB0F5005F3C
:101300000AD1206801684DF6FF7211400160206823
:10131000016841F400510160012084F8510000206F
:1013200084F850000320BDE8F0812068806836EA28
:10133000000004D00020B842C1D10020F3E7012012
:10134000F9E77047FFF7A6B830B593B03421684687
:10135000FEF78EFF14210DA8FEF78AFF194800251D
:10136000016841F080510160006800F080501290E7
:101370001548016841F4404101600068022400F40E
:101380004040129001200390102004900094069495
:101390000820CDE907505420CDE909040420CDE907
:1013A0000B046846FFF7CCF90DA90F2081E8310046
:1013B000E002CDE9100502210DA8FFF7F7F813B000
:1013C00030BD000040380240007000401048016805
:1013D00041F4700101600F48016841F001010160B2
:1013E0000C4A00210832116002680B4B1A4002605F
:1013F000031D0A4A1A60026822F48022026005482E
:101400000C300160024958068039086070470000BE
:1014100088ED00E000380240FFFFF6FE10300024A7
:10142000FEE702E008C8121F08C1002AFAD170477F
:101430007047002001E001C1121F002AFBD1704754
:10144000002800DA4042C0B27047000086B0FFF7C3
:1014500029F8FFF779FFFFF743FCFFF79DFCFFF743
:10146000F1FDFFF743FE464A01AD00240FCA85E8AF
:101470000F004FF4967600BF35F814007F2300214B
:1014800000901A460846FFF7A9FD3046FEF72EFFEA
:10149000641CE4B2082CEFD301244FF4FC68600014
:1014A000C1B2C0B24246FFF76FFE641CE4B2082C22
:1014B000F5D94FF61F050523502219461420009533
:1014C000FFF71CFE4FF478460F23502219461420D4
:1014D0000096FFF713FE40F2FF77232378220521C1
:1014E0005A200097FFF77AFD002428231E2214219A
:1014F0000A200094FFF76CFE28233C221421184692
:101500000097FFF765FE7801009023233722192109
:101510002D20FFF763FD33460F223C211420009459
:10152000FFF700FD012643460F223C214020009694
:10153000FFF7F8FC1F230F22682114200094FFF707
:10154000F1FC2B460822682114200096FFF7EAFCE4
:1015500000944FF6FF7423460AA237216E20FFF74E
:101560007FFE002308A2372164200094FFF778FE55
:10157000002308A237215A200094FFF771FEFEE7EE
:10158000D821000852560000726F626F746963734D
:10159000000000002E727500000000000000000036
:1015A000000000000000000000F800000000000043
:1015B00004000000003808003808000000000000A7
:1015C00000000040E058E05800000D030D0301004A
:1015D000006090989000000003020E01000000904F
:1015E000A890404000000000020502000000C0205A
:1015F0002000000003040502050000000078000040
:101600000000000000000000000000E018000000E2
:10161000000007180000000018E00000000000189B
:10162000070000000010D038D010000000000000BB
:101630000000808080F080808000000007000000B3
:10164000000000000000000000180E0200000080F2
:10165000808080800000000000000000000000008A
:101660000000000000060600000000000080601876
:10167000000008060100000000F0080808F0000063
:10168000030404040300000008F800000000040440
:101690000704040000100888483000000605040410
:1016A00006000010084848B00000020404040300CB
:1016B0000080403008F80000010101050705000026
:1016C00078484888000002040404030000E0504801
:1016D0004888000003040404030000180808C83800
:1016E000000000000601000000B0484848B00000BB
:1016F0000304040403000070888888F000000404D8
:101700000402010000006060000000000006060006
:1017100000000000006060000000000C06020000F5
:10172000804040201010000001010204040000402D
:101730004040404000000101010101001010204024
:1017400040800004040201010000000020109060AD
:10175000000000040500000000F804C424F80000A4
:101760000708080905000000E818E0000004070564
:101770000105070408F8484848B0000407040404B9
:10178000030000F008080818000003040404020025
:1017900008F8080810E0000407040402010008F833
:1017A00048E8081800040704040406000008F84884
:1017B000E808180004070400000000F008088898F2
:1017C000800003040404030008F8484048F80804B3
:1017D000070400040704000808F8080800000404CF
:1017E0000704040000800808F8080000030404034C
:1017F000000008F888C0281808040704000106043F
:101800000008F8080000000004070404070008F8B6
:1018100038C038F8080407040004070408F838C082
:1018200008F8080407040106070000F0080808F09B
:1018300000000304040403000008F8888870000016
:1018400004070400000000F0080808F0000003048A
:101850000C0C0B0008F8888888700004070400014D
:1018600002040030484850980000060204040300B7
:10187000180808F80808180000040704000008F811
:10188000080008F808000304040403000838C8002E
:10189000C838080000010601000008F808C008F870
:1018A0000800030403040300081820C020180804DB
:1018B0000601000106040818688068180800000482
:1018C00007040000001808C82818000006050404D2
:1018D00006000000F80808000000001F10100000BB
:1018E00000087080000000000000010E00000000F1
:1018F0000808F80000000010101F00000040201829
:101900002040000000000000000000000000000077
:1019100000202020202020200000000810000000CF
:101920000000000000000040A0A0A0C000000304D0
:101930000404070408F8402020C00004070404043D
:10194000030000C020202060000003040404020003
:1019500000C0202048F8000003040404070400C06D
:10196000A0A0A0C000000304040404000020F0288C
:101970002828000004070404040000C0202040E0E0
:101980002000031414140F0008F8402020C00004A5
:10199000070400040704002020E8000000000404FD
:1019A0000704040000202028E00000001010100FA1
:1019B000000008F880A0602000040700050604006D
:1019C000000008F80000000004040704040020E000
:1019D00020C020C0000407040704070420E04020C2
:1019E00020C0000407040004070400C0202020C019
:1019F000000003040404030020E0402020C0001085
:101A00001F140404030000C0202040E02000030451
:101A100004141F100020E0402020000004070404EC
:101A200004000040A0A0A06000000604040403001D
:101A30000020F0202020000000030404040220E025
:101A4000000020E0000003040402070420E020005E
:101A500020E0200000030403000020E0208020E0BC
:101A60002000030403040300206080806020000441
:101A70000601010604002060A00020E020001011F3
:101A80001E130000006020A0602000000605040472
:101A90000600000000F00800000000010E10000029
:101AA000000000F80000000000000F00000000002F
:101AB00008F00000000000100E010000000080008F
:101AC00000800000010001010000F808080808F883
:101AD00000070404040407001808F8885840800030
:101AE0000407040004030008F80A09083800040782
:101AF000040000000000000000000000180E0200BA
:101B000000000020E02824E0000004070400010099
:101B1000000000000000000008040A0402000000A9
:101B2000000000000000040004000400002020F871
:101B300020200000000007000000002020F82020E6
:101B40000000010107010100A0F0A8A8A8A8180042
:101B50000102040404021068502020000000020565
:101B6000020205020008F808F8488006040304078A
:101B70000403008040200000000001020400000077
:101B8000F88880F88880000704000704040308F838
:101B900048A2110818040704000106041808F88870
:101BA00058C0000004070400070408F8080008F8FB
:101BB000080407041C04070410F850504080000477
:101BC000071410100F00000000083860000000002B
:101BD0000000000000603808000000000000000065
:101BE0000000000810281020000000000000000085
:101BF0000020102810080000000000000000000075
:101C0000E0E0E000000000000000000000808080B4
:101C100080800000000000000000808080808080C4
:101C20008000000000000000F808080808F800071D
:101C3000040404040700784878582058780000000D
:101C40000000000020E020E0A0800004070007045E
:101C50000700000000204080000000000402010096
:101C600020E080E0A080000407000704070020E0D7
:101C7000A0C82460000407040001060410F85050B6
:101C80004080000407040004070420E0200020E056
:101C9000200407041C0407040000000000000000EA
:101CA000000000000000083849824A390800040694
:101CB000010000002060A40828E4200018110E0391
:101CC000000000800808F808000003040403000076
:101CD0000010E02020E010000201010101020008D4
:101CE000F808080E00000407040000000000007857
:101CF0000000000000001E0000000060B8284888B6
:101D000018000C08090A0E0308F84AE80A1800042B
:101D1000070404040600C020D0505020C001020572
:101D20000505020100F048484818000003040404B7
:101D30000200000080400080400001020401020413
:101D40000000000000000001010101010107008006
:101D5000808080800000000000000000C020F0B003
:101D60007020C00103050505020100080AF80A08F1
:101D7000000004040704040000001C141C00000000
:101D8000000000000000808080F080808004040457
:101D900007040404000808F8080800000404070405
:101DA0000400002020E800000000040407040400F0
:101DB0000020E0202038000004070400000020E09C
:101DC000000020E000001F0404020704708888F867
:101DD00008F8080008080F000F080000C0C0000045
:101DE000000000000000000000C0A8A0A8C0000083
:101DF00003040404040008F87088F8087004070459
:101E00000307000100C0A0A0206000000304040438
:101E10000200408000408000000402010402010032
:101E200000202028E00000001010100F00000030FB
:101E30004848509800000602040403000040A0A097
:101E4000A0600000060404040300002028E008004D
:101E500000000404070404000000E818E000000487
:101E600007050105070408F84848489800040704D6
:101E70000404030008F8484848B0000407040404B8
:101E800003000008F80808083800040704000000F0
:101E900008F80808F808001C070404071C0008F8E4
:101EA00048E8081800040704040406000818A0F80D
:101EB000A01808040700070007040038104848B0BD
:101EC000000004040404030008F808C030F8080403
:101ED00007030004070408F809C232F908040703DD
:101EE0000004070408F848A01008180407040001BB
:101EF00006040008F80808F80804040300040704AE
:101F000008F838C038F8080407040004070408F883
:101F1000484048F8080407040004070400F00808D3
:101F200008F0000003040404030008F8080808F897
:101F300008040704000407040008F88888700000FB
:101F400004070400000000F008080818000003045B
:101F500004040200180808F8080818000004070420
:101F600000000838488048380800040601000000D6
:101F7000C02028F82820C000010507050100081826
:101F800020C02018080406010001060408F8080013
:101F900008F8080407040404071C08F8080088F877
:101FA000080000010104070408F800F800F808041C
:101FB00007040704070408F800F800F808040704F9
:101FC0000704071C7808F848404080000407040410
:101FD000040308F8488008F8080407040304070409
:101FE00008F8484040800004070404040300001877
:101FF000484848F0000002040404030008F848F0D0
:102000000808F0040704030404030070888888F8B3
:1020100008040300000407040040A0A0A0C00000C2
:1020200003040404070400F048282CC00000030443
:10203000040403000020E0A0A04000000407040402
:1020400007000020E02020E0000004070400010059
:102050000020E02020E0200C04070404070C00C04E
:10206000A0A0A0C00000030404040400602040E01D
:10207000402060040601070106040020A0A0A04043
:10208000000004040404030020E0208040E0200459
:1020900007020104070420E0248848E42004070222
:1020A0000104070420E0A0C0206000040704000130
:1020B00006040020E02020E02006040300040704BA
:1020C00020E0608060E0200407040104070420E0B1
:1020D000A080A0E0200407040004070400C0202022
:1020E00020C0000003040404030020E0202020E0BE
:1020F000200407040004070420E0402020C0001052
:102100001F140404030000C020202060000003040A
:102110000404020000E020E020E0000000040704C6
:1021200000002060A00020E0200018110E03000035
:10213000C02028F82020C00304141F1404032060CA
:1021400080806020000406010106040020E02000D9
:1021500020E0200407040404070C20E02000A0E095
:10216000200001010104070420E000E000E0200459
:1021700007040704070420E000E000E0200407044F
:102180000704070CE020E0A080800000040704049E
:10219000030020E0A08020E02004070407040704D7
:1021A00020E0A08080000004070404040300006015
:1021B00020A0A0C0000002040404030020E0A0C08E
:1021C0002020C00407040304040300C02020E020F2
:1021D000000406010507040000001F0000F8E007E6
:1021E000FF071FF8E0FFFFFF0000000000000000F5
:1021F0000102030406070809182200080000002055
:1022000010000000221400082822000810000020FE
:102210005804000032140008010000001000000003
:08222000000000000024F4009E
:04000005080001C925
:00000001FF
